{
  "contractName": "subsidy",
  "abi": [
    {
      "inputs": [],
      "stateMutability": "nonpayable",
      "type": "constructor"
    },
    {
      "inputs": [
        {
          "internalType": "address",
          "name": "",
          "type": "address"
        }
      ],
      "name": "customers",
      "outputs": [
        {
          "internalType": "address",
          "name": "add",
          "type": "address"
        },
        {
          "internalType": "string",
          "name": "name",
          "type": "string"
        },
        {
          "internalType": "uint256",
          "name": "start_date",
          "type": "uint256"
        },
        {
          "internalType": "enum subsidy.CATEGORY",
          "name": "cat",
          "type": "uint8"
        }
      ],
      "stateMutability": "view",
      "type": "function",
      "constant": true
    },
    {
      "inputs": [],
      "name": "owner",
      "outputs": [
        {
          "internalType": "address",
          "name": "",
          "type": "address"
        }
      ],
      "stateMutability": "view",
      "type": "function",
      "constant": true
    },
    {
      "inputs": [
        {
          "internalType": "address",
          "name": "",
          "type": "address"
        }
      ],
      "name": "shopkeppers",
      "outputs": [
        {
          "internalType": "address",
          "name": "add",
          "type": "address"
        },
        {
          "internalType": "string",
          "name": "name",
          "type": "string"
        },
        {
          "internalType": "uint256",
          "name": "start_date",
          "type": "uint256"
        }
      ],
      "stateMutability": "view",
      "type": "function",
      "constant": true
    },
    {
      "inputs": [
        {
          "internalType": "address",
          "name": "address_",
          "type": "address"
        },
        {
          "internalType": "string",
          "name": "name_",
          "type": "string"
        }
      ],
      "name": "addShopkeeper",
      "outputs": [],
      "stateMutability": "nonpayable",
      "type": "function"
    },
    {
      "inputs": [
        {
          "internalType": "address",
          "name": "address_",
          "type": "address"
        },
        {
          "internalType": "string",
          "name": "name_",
          "type": "string"
        },
        {
          "internalType": "uint256",
          "name": "cat",
          "type": "uint256"
        }
      ],
      "name": "addCustomer",
      "outputs": [],
      "stateMutability": "nonpayable",
      "type": "function"
    },
    {
      "inputs": [
        {
          "internalType": "address",
          "name": "address_",
          "type": "address"
        }
      ],
      "name": "showShopkeeper",
      "outputs": [
        {
          "internalType": "string",
          "name": "",
          "type": "string"
        }
      ],
      "stateMutability": "view",
      "type": "function",
      "constant": true
    },
    {
      "inputs": [
        {
          "internalType": "address",
          "name": "address_",
          "type": "address"
        }
      ],
      "name": "showCustomer",
      "outputs": [
        {
          "internalType": "string",
          "name": "",
          "type": "string"
        }
      ],
      "stateMutability": "view",
      "type": "function",
      "constant": true
    },
    {
      "inputs": [
        {
          "internalType": "address",
          "name": "address_",
          "type": "address"
        }
      ],
      "name": "showCcatergory",
      "outputs": [
        {
          "internalType": "enum subsidy.CATEGORY",
          "name": "",
          "type": "uint8"
        }
      ],
      "stateMutability": "view",
      "type": "function",
      "constant": true
    },
    {
      "inputs": [],
      "name": "addFunds",
      "outputs": [],
      "stateMutability": "payable",
      "type": "function",
      "payable": true
    },
    {
      "inputs": [],
      "name": "showBalance",
      "outputs": [
        {
          "internalType": "uint256",
          "name": "",
          "type": "uint256"
        }
      ],
      "stateMutability": "view",
      "type": "function",
      "constant": true
    },
    {
      "inputs": [
        {
          "internalType": "address payable",
          "name": "shop_add",
          "type": "address"
        }
      ],
      "name": "payment",
      "outputs": [],
      "stateMutability": "payable",
      "type": "function",
      "payable": true
    },
    {
      "inputs": [
        {
          "internalType": "address",
          "name": "add",
          "type": "address"
        }
      ],
      "name": "isUser",
      "outputs": [
        {
          "internalType": "bool",
          "name": "",
          "type": "bool"
        }
      ],
      "stateMutability": "view",
      "type": "function",
      "constant": true
    },
    {
      "inputs": [
        {
          "internalType": "address",
          "name": "add",
          "type": "address"
        }
      ],
      "name": "isAdmin",
      "outputs": [
        {
          "internalType": "bool",
          "name": "",
          "type": "bool"
        }
      ],
      "stateMutability": "view",
      "type": "function",
      "constant": true
    }
  ],
  "bytecode": "0x608060405234801561001057600080fd5b5033600360006101000a81548173ffffffffffffffffffffffffffffffffffffffff021916908373ffffffffffffffffffffffffffffffffffffffff16021790555061153a806100616000396000f3fe6080604052600436106100c25760003560e01c806381b2d07b1161007f578063a26759cb11610059578063a26759cb14610296578063d66520b7146102a0578063f02b0b5c146102dd578063f06edc5f14610306576100c2565b806381b2d07b146102035780638da5cb5b1461022e578063951ae13c14610259576100c2565b80630bd946e9146100c757806324d7806c146100f0578063336989ae1461012d57806334c507741461016d5780633b92f3df146101aa5780634209fff1146101c6575b600080fd5b3480156100d357600080fd5b506100ee60048036038101906100e99190610f49565b610345565b005b3480156100fc57600080fd5b5061011760048036038101906101129190610e93565b61053b565b6040516101249190611150565b60405180910390f35b34801561013957600080fd5b50610154600480360381019061014f9190610e93565b6105a6565b6040516101649493929190611104565b60405180910390f35b34801561017957600080fd5b50610194600480360381019061018f9190610e93565b61068b565b6040516101a19190611186565b60405180910390f35b6101c460048036038101906101bf9190610ec0565b61075f565b005b3480156101d257600080fd5b506101ed60048036038101906101e89190610e93565b610812565b6040516101fa9190611150565b60405180910390f35b34801561020f57600080fd5b50610218610871565b60405161022591906111e8565b60405180910390f35b34801561023a57600080fd5b50610243610909565b60405161025091906110ab565b60405180910390f35b34801561026557600080fd5b50610280600480360381019061027b9190610e93565b61092f565b60405161028d9190611186565b60405180910390f35b61029e610a03565b005b3480156102ac57600080fd5b506102c760048036038101906102c29190610e93565b610a95565b6040516102d4919061116b565b60405180910390f35b3480156102e957600080fd5b5061030460048036038101906102ff9190610eed565b610aee565b005b34801561031257600080fd5b5061032d60048036038101906103289190610e93565b610c6f565b60405161033c939291906110c6565b60405180910390f35b600360009054906101000a900473ffffffffffffffffffffffffffffffffffffffff1673ffffffffffffffffffffffffffffffffffffffff163373ffffffffffffffffffffffffffffffffffffffff16146103d5576040517f08c379a00000000000000000000000000000000000000000000000000000000081526004016103cc906111c8565b60405180910390fd5b60004290506000808314156103ed5760009050610405565b60018314156103ff5760019050610404565b600290505b5b600060405180608001604052808773ffffffffffffffffffffffffffffffffffffffff16815260200186815260200184815260200183600281111561044d5761044c6113a4565b5b815250905080600160008873ffffffffffffffffffffffffffffffffffffffff1673ffffffffffffffffffffffffffffffffffffffff16815260200190815260200160002060008201518160000160006101000a81548173ffffffffffffffffffffffffffffffffffffffff021916908373ffffffffffffffffffffffffffffffffffffffff16021790555060208201518160010190805190602001906104f5929190610d41565b506040820151816002015560608201518160030160006101000a81548160ff0219169083600281111561052b5761052a6113a4565b5b0217905550905050505050505050565b6000600360009054906101000a900473ffffffffffffffffffffffffffffffffffffffff1673ffffffffffffffffffffffffffffffffffffffff168273ffffffffffffffffffffffffffffffffffffffff16141561059c57600190506105a1565b600090505b919050565b60016020528060005260406000206000915090508060000160009054906101000a900473ffffffffffffffffffffffffffffffffffffffff16908060010180546105ef90611341565b80601f016020809104026020016040519081016040528092919081815260200182805461061b90611341565b80156106685780601f1061063d57610100808354040283529160200191610668565b820191906000526020600020905b81548152906001019060200180831161064b57829003601f168201915b5050505050908060020154908060030160009054906101000a900460ff16905084565b6060600160008373ffffffffffffffffffffffffffffffffffffffff1673ffffffffffffffffffffffffffffffffffffffff16815260200190815260200160002060010180546106da90611341565b80601f016020809104026020016040519081016040528092919081815260200182805461070690611341565b80156107535780601f1061072857610100808354040283529160200191610753565b820191906000526020600020905b81548152906001019060200180831161073657829003601f168201915b50505050509050919050565b6000808273ffffffffffffffffffffffffffffffffffffffff163460405161078690611096565b60006040518083038185875af1925050503d80600081146107c3576040519150601f19603f3d011682016040523d82523d6000602084013e6107c8565b606091505b50915091508161080d576040517f08c379a0000000000000000000000000000000000000000000000000000000008152600401610804906111a8565b60405180910390fd5b505050565b600080600160008473ffffffffffffffffffffffffffffffffffffffff1673ffffffffffffffffffffffffffffffffffffffff168152602001908152602001600020600201541115610867576001905061086c565b600090505b919050565b6000600360009054906101000a900473ffffffffffffffffffffffffffffffffffffffff1673ffffffffffffffffffffffffffffffffffffffff163373ffffffffffffffffffffffffffffffffffffffff1614610903576040517f08c379a00000000000000000000000000000000000000000000000000000000081526004016108fa906111c8565b60405180910390fd5b47905090565b600360009054906101000a900473ffffffffffffffffffffffffffffffffffffffff1681565b6060600260008373ffffffffffffffffffffffffffffffffffffffff1673ffffffffffffffffffffffffffffffffffffffff168152602001908152602001600020600101805461097e90611341565b80601f01602080910402602001604051908101604052809291908181526020018280546109aa90611341565b80156109f75780601f106109cc576101008083540402835291602001916109f7565b820191906000526020600020905b8154815290600101906020018083116109da57829003601f168201915b50505050509050919050565b600360009054906101000a900473ffffffffffffffffffffffffffffffffffffffff1673ffffffffffffffffffffffffffffffffffffffff163373ffffffffffffffffffffffffffffffffffffffff1614610a93576040517f08c379a0000000000000000000000000000000000000000000000000000000008152600401610a8a906111c8565b60405180910390fd5b565b6000600160008373ffffffffffffffffffffffffffffffffffffffff1673ffffffffffffffffffffffffffffffffffffffff16815260200190815260200160002060030160009054906101000a900460ff169050919050565b600360009054906101000a900473ffffffffffffffffffffffffffffffffffffffff1673ffffffffffffffffffffffffffffffffffffffff163373ffffffffffffffffffffffffffffffffffffffff1614610b7e576040517f08c379a0000000000000000000000000000000000000000000000000000000008152600401610b75906111c8565b60405180910390fd5b6000429050600060405180606001604052808573ffffffffffffffffffffffffffffffffffffffff16815260200184815260200183815250905080600260008673ffffffffffffffffffffffffffffffffffffffff1673ffffffffffffffffffffffffffffffffffffffff16815260200190815260200160002060008201518160000160006101000a81548173ffffffffffffffffffffffffffffffffffffffff021916908373ffffffffffffffffffffffffffffffffffffffff1602179055506020820151816001019080519060200190610c5b929190610d41565b506040820151816002015590505050505050565b60026020528060005260406000206000915090508060000160009054906101000a900473ffffffffffffffffffffffffffffffffffffffff1690806001018054610cb890611341565b80601f0160208091040260200160405190810160405280929190818152602001828054610ce490611341565b8015610d315780601f10610d0657610100808354040283529160200191610d31565b820191906000526020600020905b815481529060010190602001808311610d1457829003601f168201915b5050505050908060020154905083565b828054610d4d90611341565b90600052602060002090601f016020900481019282610d6f5760008555610db6565b82601f10610d8857805160ff1916838001178555610db6565b82800160010185558215610db6579182015b82811115610db5578251825591602001919060010190610d9a565b5b509050610dc39190610dc7565b5090565b5b80821115610de0576000816000905550600101610dc8565b5090565b6000610df7610df284611228565b611203565b905082815260208101848484011115610e1357610e12611436565b5b610e1e8482856112ff565b509392505050565b600081359050610e35816114bf565b92915050565b600081359050610e4a816114d6565b92915050565b600082601f830112610e6557610e64611431565b5b8135610e75848260208601610de4565b91505092915050565b600081359050610e8d816114ed565b92915050565b600060208284031215610ea957610ea8611440565b5b6000610eb784828501610e26565b91505092915050565b600060208284031215610ed657610ed5611440565b5b6000610ee484828501610e3b565b91505092915050565b60008060408385031215610f0457610f03611440565b5b6000610f1285828601610e26565b925050602083013567ffffffffffffffff811115610f3357610f3261143b565b5b610f3f85828601610e50565b9150509250929050565b600080600060608486031215610f6257610f61611440565b5b6000610f7086828701610e26565b935050602084013567ffffffffffffffff811115610f9157610f9061143b565b5b610f9d86828701610e50565b9250506040610fae86828701610e7e565b9150509250925092565b610fc181611280565b82525050565b610fd0816112a4565b82525050565b610fdf816112ed565b82525050565b6000610ff082611259565b610ffa818561126f565b935061100a81856020860161130e565b61101381611445565b840191505092915050565b600061102b60148361126f565b915061103682611456565b602082019050919050565b600061104e60098361126f565b91506110598261147f565b602082019050919050565b6000611071600083611264565b915061107c826114a8565b600082019050919050565b611090816112e3565b82525050565b60006110a182611064565b9150819050919050565b60006020820190506110c06000830184610fb8565b92915050565b60006060820190506110db6000830186610fb8565b81810360208301526110ed8185610fe5565b90506110fc6040830184611087565b949350505050565b60006080820190506111196000830187610fb8565b818103602083015261112b8186610fe5565b905061113a6040830185611087565b6111476060830184610fd6565b95945050505050565b60006020820190506111656000830184610fc7565b92915050565b60006020820190506111806000830184610fd6565b92915050565b600060208201905081810360008301526111a08184610fe5565b905092915050565b600060208201905081810360008301526111c18161101e565b9050919050565b600060208201905081810360008301526111e181611041565b9050919050565b60006020820190506111fd6000830184611087565b92915050565b600061120d61121e565b90506112198282611373565b919050565b6000604051905090565b600067ffffffffffffffff82111561124357611242611402565b5b61124c82611445565b9050602081019050919050565b600081519050919050565b600081905092915050565b600082825260208201905092915050565b600061128b826112c3565b9050919050565b600061129d826112c3565b9050919050565b60008115159050919050565b60008190506112be826114ab565b919050565b600073ffffffffffffffffffffffffffffffffffffffff82169050919050565b6000819050919050565b60006112f8826112b0565b9050919050565b82818337600083830152505050565b60005b8381101561132c578082015181840152602081019050611311565b8381111561133b576000848401525b50505050565b6000600282049050600182168061135957607f821691505b6020821081141561136d5761136c6113d3565b5b50919050565b61137c82611445565b810181811067ffffffffffffffff8211171561139b5761139a611402565b5b80604052505050565b7f4e487b7100000000000000000000000000000000000000000000000000000000600052602160045260246000fd5b7f4e487b7100000000000000000000000000000000000000000000000000000000600052602260045260246000fd5b7f4e487b7100000000000000000000000000000000000000000000000000000000600052604160045260246000fd5b600080fd5b600080fd5b600080fd5b600080fd5b6000601f19601f8301169050919050565b7f4661696c656420746f2073656e64204574686572000000000000000000000000600082015250565b7f4e6f74206f776e65720000000000000000000000000000000000000000000000600082015250565b50565b600381106114bc576114bb6113a4565b5b50565b6114c881611280565b81146114d357600080fd5b50565b6114df81611292565b81146114ea57600080fd5b50565b6114f6816112e3565b811461150157600080fd5b5056fea2646970667358221220b05d21c8d23bcbcc8f72025ed07e8ac6e057014718c6a1a406608fa954c0a1d264736f6c63430008070033",
  "immutableReferences": {},
  "source": "// SPDX-License-Identifier: MIT\r\npragma solidity >=0.4.22 <0.8.9;\r\n\r\ncontract subsidy {\r\n    Transaction[] Transactions;\r\n\r\n    mapping(address => Customer) public customers;\r\n    mapping(address => Shopkepper) public shopkeppers;\r\n\r\n    address public owner;\r\n\r\n    enum CATEGORY {\r\n        BPL,\r\n        APL,\r\n        REFUGEE\r\n    }\r\n\r\n    //add public\r\n    constructor() {\r\n        owner = msg.sender;\r\n    }\r\n\r\n    struct product {\r\n        string itemName;\r\n        uint256 amount;\r\n    }\r\n\r\n    struct Transaction {\r\n        Shopkepper seller;\r\n        Customer buyer;\r\n        product[] items;\r\n        uint256 total;\r\n        uint256 discount;\r\n        uint256 time;\r\n    }\r\n\r\n    struct Customer {\r\n        address add;\r\n        string name;\r\n        // uint256 monthly_limit;\r\n        uint256 start_date;\r\n        CATEGORY cat;\r\n    }\r\n\r\n    struct Shopkepper {\r\n        address add;\r\n        string name;\r\n        // uint256 monthly_limit;\r\n        uint256 start_date;\r\n    }\r\n\r\n    modifier onlyOwner() {\r\n        require(msg.sender == owner, \"Not owner\");\r\n        // Underscore is a special character only used inside\r\n        // a function modifier and it tells Solidity to\r\n        // execute the rest of the code.\r\n        _;\r\n    }\r\n\r\n    function addShopkeeper(address address_, string memory name_)\r\n        public\r\n        onlyOwner\r\n    {\r\n        uint256 start_date = block.timestamp;\r\n        Shopkepper memory shopkepper = Shopkepper(address_, name_, start_date);\r\n        shopkeppers[address_] = shopkepper;\r\n    }\r\n\r\n    function addCustomer(\r\n        address address_,\r\n        string memory name_,\r\n        uint256 cat\r\n    ) public onlyOwner {\r\n        uint256 start_date = block.timestamp;\r\n        CATEGORY cat_;\r\n        if (cat == 0) {\r\n            cat_ = CATEGORY.BPL;\r\n        } else if (cat == 1) {\r\n            cat_ = CATEGORY.APL;\r\n        } else {\r\n            cat_ = CATEGORY.REFUGEE;\r\n        }\r\n\r\n        Customer memory customer = Customer(address_, name_, start_date, cat_);\r\n        customers[address_] = customer;\r\n    }\r\n\r\n    function showShopkeeper(address address_)\r\n        public\r\n        view\r\n        returns (string memory)\r\n    {\r\n        return shopkeppers[address_].name;\r\n    }\r\n\r\n    function showCustomer(address address_)\r\n        public\r\n        view\r\n        returns (string memory)\r\n    {\r\n        return customers[address_].name;\r\n    }\r\n\r\n    function showCcatergory(address address_) public view returns (CATEGORY) {\r\n        return customers[address_].cat;\r\n    }\r\n\r\n    function addFunds() external payable onlyOwner {}\r\n\r\n    function showBalance() public view onlyOwner returns (uint256) {\r\n        return address(this).balance;\r\n    }\r\n\r\n    function payment(address payable shop_add) external payable {\r\n        (bool sent, bytes memory data) = shop_add.call{value: msg.value}(\"\");\r\n        require(sent, \"Failed to send Ether\");\r\n    }\r\n\r\n    function isUser(address add) public view returns (bool) {\r\n        if (customers[add].start_date > 0) {\r\n            return true;\r\n        } else {\r\n            return false;\r\n        }\r\n    }\r\n\r\n    function isAdmin(address add) public view returns (bool) {\r\n        if (add == owner) {\r\n            return true;\r\n        }\r\n        return false;\r\n    }\r\n}\r\n",
  "sourcePath": "P:\\s-m-s-master\\client\\src\\contracts\\subsidy.sol",
  "compiler": {
    "name": "solc",
    "version": "0.8.7+commit.e28d00a7.Emscripten.clang"
  },
  "schemaVersion": "3.4.3",
  "updatedAt": "2021-11-09T14:13:46.182Z",
  "networkType": "ethereum",
  "devdoc": {
    "kind": "dev",
    "methods": {},
    "version": 1
  },
  "userdoc": {
    "kind": "user",
    "methods": {},
    "version": 1
  }
}