{
  "contractName": "subsidy",
  "abi": [
    {
      "inputs": [],
      "stateMutability": "nonpayable",
      "type": "constructor"
    },
    {
      "inputs": [
        {
          "internalType": "address",
          "name": "",
          "type": "address"
        }
      ],
      "name": "customers",
      "outputs": [
        {
          "internalType": "address",
          "name": "add",
          "type": "address"
        },
        {
          "internalType": "string",
          "name": "name",
          "type": "string"
        },
        {
          "internalType": "uint256",
          "name": "start_date",
          "type": "uint256"
        },
        {
          "internalType": "enum subsidy.CATEGORY",
          "name": "cat",
          "type": "uint8"
        }
      ],
      "stateMutability": "view",
      "type": "function",
      "constant": true
    },
    {
      "inputs": [],
      "name": "owner",
      "outputs": [
        {
          "internalType": "address",
          "name": "",
          "type": "address"
        }
      ],
      "stateMutability": "view",
      "type": "function",
      "constant": true
    },
    {
      "inputs": [
        {
          "internalType": "address",
          "name": "",
          "type": "address"
        }
      ],
      "name": "shopkeppers",
      "outputs": [
        {
          "internalType": "address",
          "name": "add",
          "type": "address"
        },
        {
          "internalType": "string",
          "name": "name",
          "type": "string"
        },
        {
          "internalType": "uint256",
          "name": "start_date",
          "type": "uint256"
        }
      ],
      "stateMutability": "view",
      "type": "function",
      "constant": true
    },
    {
      "inputs": [
        {
          "internalType": "address",
          "name": "address_",
          "type": "address"
        },
        {
          "internalType": "string",
          "name": "name_",
          "type": "string"
        }
      ],
      "name": "addShopkeeper",
      "outputs": [],
      "stateMutability": "nonpayable",
      "type": "function"
    },
    {
      "inputs": [
        {
          "internalType": "address",
          "name": "address_",
          "type": "address"
        },
        {
          "internalType": "string",
          "name": "name_",
          "type": "string"
        },
        {
          "internalType": "uint256",
          "name": "cat",
          "type": "uint256"
        }
      ],
      "name": "addCustomer",
      "outputs": [],
      "stateMutability": "nonpayable",
      "type": "function"
    },
    {
      "inputs": [
        {
          "internalType": "address",
          "name": "address_",
          "type": "address"
        }
      ],
      "name": "showShopkeeper",
      "outputs": [
        {
          "internalType": "string",
          "name": "",
          "type": "string"
        }
      ],
      "stateMutability": "view",
      "type": "function",
      "constant": true
    },
    {
      "inputs": [
        {
          "internalType": "address",
          "name": "address_",
          "type": "address"
        }
      ],
      "name": "showCustomer",
      "outputs": [
        {
          "internalType": "string",
          "name": "",
          "type": "string"
        }
      ],
      "stateMutability": "view",
      "type": "function",
      "constant": true
    },
    {
      "inputs": [
        {
          "internalType": "address",
          "name": "address_",
          "type": "address"
        }
      ],
      "name": "showCcatergory",
      "outputs": [
        {
          "internalType": "enum subsidy.CATEGORY",
          "name": "",
          "type": "uint8"
        }
      ],
      "stateMutability": "view",
      "type": "function",
      "constant": true
    },
    {
      "inputs": [],
      "name": "addFunds",
      "outputs": [],
      "stateMutability": "payable",
      "type": "function",
      "payable": true
    },
    {
      "inputs": [],
      "name": "showBalance",
      "outputs": [
        {
          "internalType": "uint256",
          "name": "",
          "type": "uint256"
        }
      ],
      "stateMutability": "view",
      "type": "function",
      "constant": true
    },
    {
      "inputs": [
        {
          "internalType": "address payable",
          "name": "shop_add",
          "type": "address"
        }
      ],
      "name": "payment",
      "outputs": [],
      "stateMutability": "payable",
      "type": "function",
      "payable": true
    }
  ],
  "bytecode": "0x608060405234801561001057600080fd5b5033600360006101000a81548173ffffffffffffffffffffffffffffffffffffffff021916908373ffffffffffffffffffffffffffffffffffffffff16021790555061139a806100616000396000f3fe60806040526004361061009c5760003560e01c80638da5cb5b116100645780638da5cb5b1461018e578063951ae13c146101b9578063a26759cb146101f6578063d66520b714610200578063f02b0b5c1461023d578063f06edc5f146102665761009c565b80630bd946e9146100a1578063336989ae146100ca57806334c507741461010a5780633b92f3df1461014757806381b2d07b14610163575b600080fd5b3480156100ad57600080fd5b506100c860048036038101906100c39190610ddf565b6102a5565b005b3480156100d657600080fd5b506100f160048036038101906100ec9190610d29565b61049b565b6040516101019493929190610f8b565b60405180910390f35b34801561011657600080fd5b50610131600480360381019061012c9190610d29565b610580565b60405161013e9190610ff2565b60405180910390f35b610161600480360381019061015c9190610d56565b610654565b005b34801561016f57600080fd5b50610178610707565b6040516101859190611054565b60405180910390f35b34801561019a57600080fd5b506101a361079f565b6040516101b09190610f32565b60405180910390f35b3480156101c557600080fd5b506101e060048036038101906101db9190610d29565b6107c5565b6040516101ed9190610ff2565b60405180910390f35b6101fe610899565b005b34801561020c57600080fd5b5061022760048036038101906102229190610d29565b61092b565b6040516102349190610fd7565b60405180910390f35b34801561024957600080fd5b50610264600480360381019061025f9190610d83565b610984565b005b34801561027257600080fd5b5061028d60048036038101906102889190610d29565b610b05565b60405161029c93929190610f4d565b60405180910390f35b600360009054906101000a900473ffffffffffffffffffffffffffffffffffffffff1673ffffffffffffffffffffffffffffffffffffffff163373ffffffffffffffffffffffffffffffffffffffff1614610335576040517f08c379a000000000000000000000000000000000000000000000000000000000815260040161032c90611034565b60405180910390fd5b600042905060008083141561034d5760009050610365565b600183141561035f5760019050610364565b600290505b5b600060405180608001604052808773ffffffffffffffffffffffffffffffffffffffff1681526020018681526020018481526020018360028111156103ad576103ac611204565b5b815250905080600160008873ffffffffffffffffffffffffffffffffffffffff1673ffffffffffffffffffffffffffffffffffffffff16815260200190815260200160002060008201518160000160006101000a81548173ffffffffffffffffffffffffffffffffffffffff021916908373ffffffffffffffffffffffffffffffffffffffff1602179055506020820151816001019080519060200190610455929190610bd7565b506040820151816002015560608201518160030160006101000a81548160ff0219169083600281111561048b5761048a611204565b5b0217905550905050505050505050565b60016020528060005260406000206000915090508060000160009054906101000a900473ffffffffffffffffffffffffffffffffffffffff16908060010180546104e4906111a1565b80601f0160208091040260200160405190810160405280929190818152602001828054610510906111a1565b801561055d5780601f106105325761010080835404028352916020019161055d565b820191906000526020600020905b81548152906001019060200180831161054057829003601f168201915b5050505050908060020154908060030160009054906101000a900460ff16905084565b6060600160008373ffffffffffffffffffffffffffffffffffffffff1673ffffffffffffffffffffffffffffffffffffffff16815260200190815260200160002060010180546105cf906111a1565b80601f01602080910402602001604051908101604052809291908181526020018280546105fb906111a1565b80156106485780601f1061061d57610100808354040283529160200191610648565b820191906000526020600020905b81548152906001019060200180831161062b57829003601f168201915b50505050509050919050565b6000808273ffffffffffffffffffffffffffffffffffffffff163460405161067b90610f1d565b60006040518083038185875af1925050503d80600081146106b8576040519150601f19603f3d011682016040523d82523d6000602084013e6106bd565b606091505b509150915081610702576040517f08c379a00000000000000000000000000000000000000000000000000000000081526004016106f990611014565b60405180910390fd5b505050565b6000600360009054906101000a900473ffffffffffffffffffffffffffffffffffffffff1673ffffffffffffffffffffffffffffffffffffffff163373ffffffffffffffffffffffffffffffffffffffff1614610799576040517f08c379a000000000000000000000000000000000000000000000000000000000815260040161079090611034565b60405180910390fd5b47905090565b600360009054906101000a900473ffffffffffffffffffffffffffffffffffffffff1681565b6060600260008373ffffffffffffffffffffffffffffffffffffffff1673ffffffffffffffffffffffffffffffffffffffff1681526020019081526020016000206001018054610814906111a1565b80601f0160208091040260200160405190810160405280929190818152602001828054610840906111a1565b801561088d5780601f106108625761010080835404028352916020019161088d565b820191906000526020600020905b81548152906001019060200180831161087057829003601f168201915b50505050509050919050565b600360009054906101000a900473ffffffffffffffffffffffffffffffffffffffff1673ffffffffffffffffffffffffffffffffffffffff163373ffffffffffffffffffffffffffffffffffffffff1614610929576040517f08c379a000000000000000000000000000000000000000000000000000000000815260040161092090611034565b60405180910390fd5b565b6000600160008373ffffffffffffffffffffffffffffffffffffffff1673ffffffffffffffffffffffffffffffffffffffff16815260200190815260200160002060030160009054906101000a900460ff169050919050565b600360009054906101000a900473ffffffffffffffffffffffffffffffffffffffff1673ffffffffffffffffffffffffffffffffffffffff163373ffffffffffffffffffffffffffffffffffffffff1614610a14576040517f08c379a0000000000000000000000000000000000000000000000000000000008152600401610a0b90611034565b60405180910390fd5b6000429050600060405180606001604052808573ffffffffffffffffffffffffffffffffffffffff16815260200184815260200183815250905080600260008673ffffffffffffffffffffffffffffffffffffffff1673ffffffffffffffffffffffffffffffffffffffff16815260200190815260200160002060008201518160000160006101000a81548173ffffffffffffffffffffffffffffffffffffffff021916908373ffffffffffffffffffffffffffffffffffffffff1602179055506020820151816001019080519060200190610af1929190610bd7565b506040820151816002015590505050505050565b60026020528060005260406000206000915090508060000160009054906101000a900473ffffffffffffffffffffffffffffffffffffffff1690806001018054610b4e906111a1565b80601f0160208091040260200160405190810160405280929190818152602001828054610b7a906111a1565b8015610bc75780601f10610b9c57610100808354040283529160200191610bc7565b820191906000526020600020905b815481529060010190602001808311610baa57829003601f168201915b5050505050908060020154905083565b828054610be3906111a1565b90600052602060002090601f016020900481019282610c055760008555610c4c565b82601f10610c1e57805160ff1916838001178555610c4c565b82800160010185558215610c4c579182015b82811115610c4b578251825591602001919060010190610c30565b5b509050610c599190610c5d565b5090565b5b80821115610c76576000816000905550600101610c5e565b5090565b6000610c8d610c8884611094565b61106f565b905082815260208101848484011115610ca957610ca8611296565b5b610cb484828561115f565b509392505050565b600081359050610ccb8161131f565b92915050565b600081359050610ce081611336565b92915050565b600082601f830112610cfb57610cfa611291565b5b8135610d0b848260208601610c7a565b91505092915050565b600081359050610d238161134d565b92915050565b600060208284031215610d3f57610d3e6112a0565b5b6000610d4d84828501610cbc565b91505092915050565b600060208284031215610d6c57610d6b6112a0565b5b6000610d7a84828501610cd1565b91505092915050565b60008060408385031215610d9a57610d996112a0565b5b6000610da885828601610cbc565b925050602083013567ffffffffffffffff811115610dc957610dc861129b565b5b610dd585828601610ce6565b9150509250929050565b600080600060608486031215610df857610df76112a0565b5b6000610e0686828701610cbc565b935050602084013567ffffffffffffffff811115610e2757610e2661129b565b5b610e3386828701610ce6565b9250506040610e4486828701610d14565b9150509250925092565b610e57816110ec565b82525050565b610e668161114d565b82525050565b6000610e77826110c5565b610e8181856110db565b9350610e9181856020860161116e565b610e9a816112a5565b840191505092915050565b6000610eb26014836110db565b9150610ebd826112b6565b602082019050919050565b6000610ed56009836110db565b9150610ee0826112df565b602082019050919050565b6000610ef86000836110d0565b9150610f0382611308565b600082019050919050565b610f1781611143565b82525050565b6000610f2882610eeb565b9150819050919050565b6000602082019050610f476000830184610e4e565b92915050565b6000606082019050610f626000830186610e4e565b8181036020830152610f748185610e6c565b9050610f836040830184610f0e565b949350505050565b6000608082019050610fa06000830187610e4e565b8181036020830152610fb28186610e6c565b9050610fc16040830185610f0e565b610fce6060830184610e5d565b95945050505050565b6000602082019050610fec6000830184610e5d565b92915050565b6000602082019050818103600083015261100c8184610e6c565b905092915050565b6000602082019050818103600083015261102d81610ea5565b9050919050565b6000602082019050818103600083015261104d81610ec8565b9050919050565b60006020820190506110696000830184610f0e565b92915050565b600061107961108a565b905061108582826111d3565b919050565b6000604051905090565b600067ffffffffffffffff8211156110af576110ae611262565b5b6110b8826112a5565b9050602081019050919050565b600081519050919050565b600081905092915050565b600082825260208201905092915050565b60006110f782611123565b9050919050565b600061110982611123565b9050919050565b600081905061111e8261130b565b919050565b600073ffffffffffffffffffffffffffffffffffffffff82169050919050565b6000819050919050565b600061115882611110565b9050919050565b82818337600083830152505050565b60005b8381101561118c578082015181840152602081019050611171565b8381111561119b576000848401525b50505050565b600060028204905060018216806111b957607f821691505b602082108114156111cd576111cc611233565b5b50919050565b6111dc826112a5565b810181811067ffffffffffffffff821117156111fb576111fa611262565b5b80604052505050565b7f4e487b7100000000000000000000000000000000000000000000000000000000600052602160045260246000fd5b7f4e487b7100000000000000000000000000000000000000000000000000000000600052602260045260246000fd5b7f4e487b7100000000000000000000000000000000000000000000000000000000600052604160045260246000fd5b600080fd5b600080fd5b600080fd5b600080fd5b6000601f19601f8301169050919050565b7f4661696c656420746f2073656e64204574686572000000000000000000000000600082015250565b7f4e6f74206f776e65720000000000000000000000000000000000000000000000600082015250565b50565b6003811061131c5761131b611204565b5b50565b611328816110ec565b811461133357600080fd5b50565b61133f816110fe565b811461134a57600080fd5b50565b61135681611143565b811461136157600080fd5b5056fea2646970667358221220724f10d520718e53cc7d933196db4ce73d13a7b26ba24579d1f244b23ee3665564736f6c63430008070033",
  "immutableReferences": {},
  "source": "// SPDX-License-Identifier: MIT\r\npragma solidity >=0.4.22 <0.8.9;\r\n\r\ncontract subsidy {\r\n    Transaction[] Transactions;\r\n\r\n    mapping(address => Customer) public customers;\r\n    mapping(address => Shopkepper) public shopkeppers;\r\n\r\n    address public owner;\r\n\r\n    enum CATEGORY {\r\n        BPL,\r\n        APL,\r\n        REFUGEE\r\n    }\r\n\r\n    //add public\r\n    constructor() {\r\n        owner = msg.sender;\r\n    }\r\n\r\n    struct product {\r\n        string itemName;\r\n        uint256 amount;\r\n    }\r\n\r\n    struct Transaction {\r\n        Shopkepper seller;\r\n        Customer buyer;\r\n        product[] items;\r\n        uint256 total;\r\n        uint256 discount;\r\n        uint256 time;\r\n    }\r\n\r\n    struct Customer {\r\n        address add;\r\n        string name;\r\n        // uint256 monthly_limit;\r\n        uint256 start_date;\r\n        CATEGORY cat;\r\n    }\r\n\r\n    struct Shopkepper {\r\n        address add;\r\n        string name;\r\n        // uint256 monthly_limit;\r\n        uint256 start_date;\r\n    }\r\n\r\n    modifier onlyOwner() {\r\n        require(msg.sender == owner, \"Not owner\");\r\n        // Underscore is a special character only used inside\r\n        // a function modifier and it tells Solidity to\r\n        // execute the rest of the code.\r\n        _;\r\n    }\r\n\r\n    function addShopkeeper(address address_, string memory name_)\r\n        public\r\n        onlyOwner\r\n    {\r\n        uint256 start_date = block.timestamp;\r\n        Shopkepper memory shopkepper = Shopkepper(address_, name_, start_date);\r\n        shopkeppers[address_] = shopkepper;\r\n    }\r\n\r\n    function addCustomer(\r\n        address address_,\r\n        string memory name_,\r\n        uint256 cat\r\n    ) public onlyOwner {\r\n        uint256 start_date = block.timestamp;\r\n        CATEGORY cat_;\r\n        if (cat == 0) {\r\n            cat_ = CATEGORY.BPL;\r\n        } else if (cat == 1) {\r\n            cat_ = CATEGORY.APL;\r\n        } else {\r\n            cat_ = CATEGORY.REFUGEE;\r\n        }\r\n\r\n        Customer memory customer = Customer(address_, name_, start_date, cat_);\r\n        customers[address_] = customer;\r\n    }\r\n\r\n    function showShopkeeper(address address_)\r\n        public\r\n        view\r\n        returns (string memory)\r\n    {\r\n        return shopkeppers[address_].name;\r\n    }\r\n\r\n    function showCustomer(address address_)\r\n        public\r\n        view\r\n        returns (string memory)\r\n    {\r\n        return customers[address_].name;\r\n    }\r\n\r\n    function showCcatergory(address address_) public view returns (CATEGORY) {\r\n        return customers[address_].cat;\r\n    }\r\n\r\n    function addFunds() external payable onlyOwner {}\r\n\r\n    function showBalance() public view onlyOwner returns (uint256) {\r\n        return address(this).balance;\r\n    }\r\n\r\n    function payment(address payable shop_add) external payable {\r\n        (bool sent, bytes memory data) = shop_add.call{value: msg.value}(\"\");\r\n        require(sent, \"Failed to send Ether\");\r\n    }\r\n}\r\n",
  "sourcePath": "P:\\s-m-s-master\\client\\src\\contracts\\subsidy.sol",
  "compiler": {
    "name": "solc",
    "version": "0.8.7+commit.e28d00a7.Emscripten.clang"
  },
  "schemaVersion": "3.4.3",
  "updatedAt": "2021-11-08T14:11:09.793Z",
  "networkType": "ethereum",
  "devdoc": {
    "kind": "dev",
    "methods": {},
    "version": 1
  },
  "userdoc": {
    "kind": "user",
    "methods": {},
    "version": 1
  }
}